{
  "transactions": [
    {
      "hash": "0xbe7bcfb181bb8cce60440ad4c8469f563c1df7720019c7f01646d8bc66dfe083",
      "transactionType": "CALL",
      "contractName": null,
      "contractAddress": "0x779877A7B0D9E8603169DdbD7836e478b4624789",
      "function": "transferAndCall(address,uint256,bytes)",
      "arguments": [
        "0x8103B0A8A00be2DDC778e6e7eaa21791Cd364625",
        "3000000000000000000",
        "0x0000000000000000000000000000000000000000000000000000000000002a78"
      ],
      "transaction": {
        "type": "0x02",
        "from": "0x5bb7b94d700bd098c9f5e34aef0d852628dfc533",
        "to": "0x779877a7b0d9e8603169ddbd7836e478b4624789",
        "gas": "0x13fbe",
        "value": "0x0",
        "data": "0x4000aea00000000000000000000000008103b0a8a00be2ddc778e6e7eaa21791cd36462500000000000000000000000000000000000000000000000029a2241af62c0000000000000000000000000000000000000000000000000000000000000000006000000000000000000000000000000000000000000000000000000000000000200000000000000000000000000000000000000000000000000000000000002a78",
        "nonce": "0x6d",
        "accessList": []
      },
      "additionalContracts": [],
      "isFixedGasLimit": false
    }
  ],
  "receipts": [
    {
      "transactionHash": "0xbe7bcfb181bb8cce60440ad4c8469f563c1df7720019c7f01646d8bc66dfe083",
      "transactionIndex": "0xf",
      "blockHash": "0xef578b26e01a4d07336e7353dea64e121c558d4c8318f7854d23f1926c8f8966",
      "blockNumber": "0x56a43c",
      "from": "0x5bb7b94D700bd098c9F5e34AEf0d852628DFc533",
      "to": "0x779877A7B0D9E8603169DdbD7836e478b4624789",
      "cumulativeGasUsed": "0xf700b",
      "gasUsed": "0xe77e",
      "contractAddress": null,
      "logs": [
        {
          "address": "0x779877A7B0D9E8603169DdbD7836e478b4624789",
          "topics": [
            "0xddf252ad1be2c89b69c2b068fc378daa952ba7f163c4a11628f55a4df523b3ef",
            "0x0000000000000000000000005bb7b94d700bd098c9f5e34aef0d852628dfc533",
            "0x0000000000000000000000008103b0a8a00be2ddc778e6e7eaa21791cd364625"
          ],
          "data": "0x00000000000000000000000000000000000000000000000029a2241af62c0000",
          "blockHash": "0xef578b26e01a4d07336e7353dea64e121c558d4c8318f7854d23f1926c8f8966",
          "blockNumber": "0x56a43c",
          "transactionHash": "0xbe7bcfb181bb8cce60440ad4c8469f563c1df7720019c7f01646d8bc66dfe083",
          "transactionIndex": "0xf",
          "logIndex": "0x15",
          "removed": false
        },
        {
          "address": "0x779877A7B0D9E8603169DdbD7836e478b4624789",
          "topics": [
            "0xe19260aff97b920c7df27010903aeb9c8d2be5d310a2c67824cf3f15396e4c16",
            "0x0000000000000000000000005bb7b94d700bd098c9f5e34aef0d852628dfc533",
            "0x0000000000000000000000008103b0a8a00be2ddc778e6e7eaa21791cd364625"
          ],
          "data": "0x00000000000000000000000000000000000000000000000029a2241af62c0000000000000000000000000000000000000000000000000000000000000000004000000000000000000000000000000000000000000000000000000000000000200000000000000000000000000000000000000000000000000000000000002a78",
          "blockHash": "0xef578b26e01a4d07336e7353dea64e121c558d4c8318f7854d23f1926c8f8966",
          "blockNumber": "0x56a43c",
          "transactionHash": "0xbe7bcfb181bb8cce60440ad4c8469f563c1df7720019c7f01646d8bc66dfe083",
          "transactionIndex": "0xf",
          "logIndex": "0x16",
          "removed": false
        },
        {
          "address": "0x8103B0A8A00be2DDC778e6e7eaa21791Cd364625",
          "topics": [
            "0xd39ec07f4e209f627a4c427971473820dc129761ba28de8906bd56f57101d4f8",
            "0x0000000000000000000000000000000000000000000000000000000000002a78"
          ],
          "data": "0x000000000000000000000000000000000000000000000000ba58c09182073024000000000000000000000000000000000000000000000000e3fae4ac78333024",
          "blockHash": "0xef578b26e01a4d07336e7353dea64e121c558d4c8318f7854d23f1926c8f8966",
          "blockNumber": "0x56a43c",
          "transactionHash": "0xbe7bcfb181bb8cce60440ad4c8469f563c1df7720019c7f01646d8bc66dfe083",
          "transactionIndex": "0xf",
          "logIndex": "0x17",
          "removed": false
        }
      ],
      "status": "0x1",
      "logsBloom": "0x0000001400000000000000000000000000000000000000020008000002000000000000000000800000000000000000000000000000000000000000000000000000000000000200000000000800000000000000000000000000002000000000000000000000000000800000000000000000000000400000000000001000000000000000000c000020000000000000800010000020000000000000000000000000000000000000000000000000000000000000000000000000000400000000000000040002000000000000000000000000004000000000000100000000000000000000800000000000000000000000000000000000000000000000000000000000",
      "type": "0x2",
      "effectiveGasPrice": "0xb2d8d4c0"
    }
  ],
  "libraries": [],
  "pending": [],
  "returns": {},
  "timestamp": 1712879510,
  "chain": 11155111,
  "commit": "7ed7245"
}